:020000040800F2
:10000000000002204503000895030008950300083E
:100010009503000895030008950300080000000000
:100020000000000000000000000000009503000830
:1000300095030008000000009503000895030008E0
:100040009503000895030008950300089503000830
:100050009503000895030008950300089503000820
:100060009503000895030008950300089503000810
:100070009503000895030008950300089503000800
:100080009503000895030008950300080000000090
:1000900000000000000000000000000095030008C0
:1000A00095030008950300089503000895030008D0
:1000B00095030008950300089503000895030008C0
:1000C00095030008950300089503000895030008B0
:1000D0009503000895030008950300080000000040
:1000E0009503000895030008950300080000000030
:1000F0000000000000000000000000009503000860
:10010000000000009503000895030008950300080F
:1001100000000000000000000000000000000000DF
:10012000950300089503000895030008950300084F
:10013000950300080000000000000000000000001F
:10014000000000000000000000000000950300080F
:10015000950300089503000895030008950300081F
:10016000950300089503000800000000000000004F
:10017000000000000000000000000000000000007F
:1001800000000000950300080000000000000000CF
:08019000950300089503000827
:100198000348044B834202D0034B03B1184770470E
:1001A8000000002000000020000000000548064B69
:1001B8001B1AD90F01EBA301491002D0034B03B15D
:1001C80018477047000000200000002000000000D1
:1001D80010B5064C237843B9FFF7DAFF044B13B187
:1001E8000448AFF300800123237010BD00000020F5
:1001F800000000009803000808B5044B1BB104492F
:100208000448AFF30080BDE80840CFE700000000D5
:10021800040000209803000870B50F4B0F4DAB4247
:10022800A3EB050607D0B610002455F8043B0134AB
:100238009847A642F9D800F0ABF8094D094B5E1B68
:10024800AB424FEAA60606D0002455F8043B013419
:100258009847A642F9D870BDB0030008B00300085B
:10026800B0030008B403000880B483B000AF174B94
:100278001B6B164A43F004031363154B1B68144A9F
:1002880023F040631360124B1B68114A43F08063EC
:1002980013600F4B4FF000529A6100237B6002E01D
:1002A8007B6801337B607B680A4A9342F8D9084B24
:1002B8004FF400529A6100233B6002E03B6801332F
:1002C8003B603B68034A9342F8D9E2E700380240B2
:1002D800000802403F0D030080B400AF144BD3F870
:1002E8008830134A43F47003C2F88830114B1B68F6
:1002F800104A43F0010313600E4B00229A600D4B25
:100308001B680C4A23F0847323F480331360094B71
:10031800094A5A60074B1B68064A23F48023136076
:10032800044B0022DA6000BFBD465DF8047B7047CD
:1003380000ED00E00038024010300024DFF834D02F
:10034800FFF7CAFF0C480D490D4A002302E0D458B4
:10035800C4500433C4188C42F9D30A4A0A4C002307
:1003680001E013600432A242FBD3FFF755FFFFF709
:100378007BFF7047000002200000002000000020E2
:10038800B8030008000000201C000020FEE7000061
:10039800F8B500BFF8BC08BC9E467047F8B500BF6A
:0803A800F8BC08BC9E4670473A
:0403B000010200083E
:0403B400D901000863
:0400000508000345A7
:00000001FF
