:020000040800F2
:10000000000002200D1D00085D1D00085D1D000898
:100010005D1D00085D1D00085D1D0008000000005A
:100020000000000000000000000000005D1D00084E
:100030005D1D0008000000005D1D00086904000847
:100040005D1D00085D1D00085D1D00085D1D0008A8
:100050005D1D00085D1D00085D1D00085D1D000898
:100060005D1D00085D1D00085D1D00085D1D000888
:100070005D1D00085D1D00085D1D00085D1D000878
:100080005D1D00085D1D00085D1D000800000000EA
:100090000000000000000000000000005D1D0008DE
:1000A0005D1D00085D1D00085D1D00085D1D000848
:1000B0005D1D00085D1D00085D1D00085D1D000838
:1000C0005D1D00085D1D00085D1D00085D1D000828
:1000D0005D1D00085D1D00085D1D0008000000009A
:1000E0005D1D00085D1D00085D1D0008000000008A
:1000F0000000000000000000000000005D1D00087E
:10010000000000005D1D00085D1D00085D1D000869
:1001100000000000000000000000000000000000DF
:100120005D1D00085D1D00085D1D00085D1D0008C7
:100130005D1D00080000000000000000000000003D
:100140000000000000000000000000005D1D00082D
:100150005D1D00085D1D00085D1D00085D1D000897
:100160005D1D00085D1D000800000000000000008B
:10017000000000000000000000000000000000007F
:10018000000000005D1D00080000000000000000ED
:080190005D1D00085D1D000863
:100198000348044B834202D0034B03B1184770470E
:1001A8009000002090000020000000000548064B49
:1001B8001B1AD90F01EBA301491002D0034B03B15D
:1001C80018477047900000209000002000000000B1
:1001D80010B5064C237843B9FFF7DAFF044B13B187
:1001E8000448AFF300800123237010BD9000002065
:1001F80000000000601D000808B5044B1BB104494D
:100208000448AFF30080BDE80840CFE700000000D5
:1002180094000020601D000870B50F4B0F4DAB42D5
:10022800A3EB050607D0B610002455F8043B0134AB
:100238009847A642F9D801F08FFD094D094B5E1B7E
:10024800AB424FEAA60606D0002455F8043B013419
:100258009847A642F9D870BDDC1F0008DC1F0008CB
:10026800DC1F0008E01F0008844641EA000313F081
:1002780003036DD1403A41D351F8043B40F8043BA5
:1002880051F8043B40F8043B51F8043B40F8043B68
:1002980051F8043B40F8043B51F8043B40F8043B58
:1002A80051F8043B40F8043B51F8043B40F8043B48
:1002B80051F8043B40F8043B51F8043B40F8043B38
:1002C80051F8043B40F8043B51F8043B40F8043B28
:1002D80051F8043B40F8043B51F8043B40F8043B18
:1002E80051F8043B40F8043B51F8043B40F8043B08
:1002F80051F8043B40F8043B403ABDD2303211D3A8
:1003080051F8043B40F8043B51F8043B40F8043BE7
:1003180051F8043B40F8043B51F8043B40F8043BD7
:10032800103AEDD20C3205D351F8043B40F8043BA7
:10033800043AF9D2043208D0D2071CBF11F8013BA5
:1003480000F8013B01D30B8803806046704700BF6B
:10035800082A13D38B078DD010F003038AD0C3F17A
:100368000403D21ADB071CBF11F8013B00F8013B5C
:1003780080D331F8023B20F8023B7BE7043AD9D31B
:10038800013A11F8013B00F8013BF9D20B780370F0
:100398004B7843708B7883706046704780B582B025
:1003A80002AF00F06FF800F0F9F8114800F0E0F83B
:1003B800002300934FF4165302220121002000F07D
:1003C800B3FA0346002B04D00A4800F0D1F800BF66
:1003D800FDE700F027FB0346002B04D0064800F099
:1003E800C7F800BFFDE700F06BFA00F037FBFAE74B
:1003F800781D0008A41D0008BC1D000880B400AFCB
:10040800144BD3F88830134A43F47003C2F8883089
:10041800114B1B68104A43F0010313600E4B002276
:100428009A600D4B1B680C4A23F0847323F48033C5
:100438001360094B094A5A60074B1B68064A23F4A4
:1004480080231360044B0022DA6000BFBD465DF8CC
:10045800047B704700ED00E00038024010300024B3
:1004680080B500AF064B1B68002B04D0044B1B68FB
:10047800013B034A136000F0CBF800BF80BD00BF0A
:10048800AC00002080B400AF094B1B68094AA2FBEE
:1004980003239B09084A013B5360074B00229A60DB
:1004A800054B07221A6000BFBD465DF8047B704704
:1004B80000000020D34D621010E000E080B400AFCF
:1004C800184B1B6B174A43F001031363154B1B6C46
:1004D800144A43F400331364134B1B68124A23F085
:1004E800F0031360104B1B680F4A43F0A00313601E
:1004F8000D4B1B6A0C4A23F47F4313620A4B1B6A99
:10050800094A43F4EE431362084B40F283629A604F
:10051800064B42F20C02DA6000BFBD465DF8047B70
:10052800704700BF0038024000000240004400400D
:1005380080B483B000AF0346FB7100BF0B4B1B6850
:1005480003F08003002BF9D0084AFB79536000BF01
:10055800064B1B6803F04003002BF9D000BF00BF17
:100568000C37BD465DF8047B704700BF004400406F
:1005780080B582B000AF786006E07B685A1C7A606C
:100588001B781846FFF7D4FF7B681B78002BF4D143
:1005980000BF00BF0837BD4680BD000080B500AF72
:1005A800FFF78CFF0A4B1B6B094A43F001031363E7
:1005B800084B1B68074A23F440331360054B1B683C
:1005C800044A43F48033136000F014F800BF80BD80
:1005D800003802400000024080B400AF044B4FF4E2
:1005E80080729A6100BFBD465DF8047B704700BF0A
:1005F8000000024080B400AF044B4FF080729A6153
:1006080000BFBD465DF8047B704700BF0000024094
:1006180080B500AF0E4B1B78DBB2002B16D00D4B0C
:100628001B68002B12D00B4B1B68013B094A136057
:10063800084B1B68002B09D1054B00221A70064B8A
:100648001B68002B02D0044B1B68984700BF80BD75
:10065800C4000020BC000020E800002080B400AFE7
:10066800054B00221A70054B00221A700123184608
:10067800BD465DF8047B7047B0000020B100002043
:1006880080B485B000AF0346FB71104B1B78DBB21A
:100698000133DBB203F00703FB730D4B1B78DBB2AE
:1006A800FA7B9A4201D100230AE0084B1B78DBB29F
:1006B8001946084AFB795354044AFB7B13700123FB
:1006C80018461437BD465DF8047B7047B10000201A
:1006D800B0000020B400002080B483B000AF786080
:1006E800114B1B78DAB2114B1B78DBB29A4201D15D
:1006F800002313E00C4B1B78DBB21A460C4B9B5CB7
:10070800DAB27B681A70084B1B78DBB20133DBB2B4
:1007180003F00703DAB2044B1A70012318460C37AA
:10072800BD465DF8047B7047B0000020B100002092
:10073800B400002080B582B000AF396011461A4677
:100748000346FB710B46BB7113467B717B79002B0B
:1007580001D000230AE0FFF7B1FEFFF71FFF054BAA
:1007680000221A70044B00221A7001231846083719
:10077800BD4680BDC5000020C600002080B582B0FF
:1007880000AF03460A46FB711346BB71084AFB7962
:100798001370084ABB791370BB79002B02D0FFF79E
:1007A8001BFF01E0FFF726FF00BF0837BD4680BDED
:1007B800C5000020C600002080B483B000AF786078
:1007C8007B68002B01D1002305E0064B5B685AB219
:1007D8007B681A70012318460C37BD465DF8047B08
:1007E800704700BF0044004080B483B000AF0346A8
:1007F800FB7100BF074B1B6803F08003002BF9D087
:10080800FA79044B5A60012318460C37BD465DF847
:10081800047B70470044004080B485B000AF0346B5
:10082800FB80FB88002B01D100231BE0FB883222D0
:1008380002FB03F3FB60FB6803F2E7330C4AA2FBFD
:1008480003239B090B4A13600A4B1B68002B02D138
:10085800084B01221A60084B00221A70074B00222D
:100868001A60012318461437BD465DF8047B7047AB
:10087800D34D6210C0000020C4000020BC0000203E
:1008880080B400AF054B1B68054A1360054B012275
:100898001A7000BFBD465DF8047B7047C000002099
:1008A800BC000020C400002080B400AF034B00222D
:1008B8001A7000BFBD465DF8047B7047C400002075
:1008C80080B500AF134B1B78DBB2002B0DD006E0D0
:1008D800114B1B68002B02D00F4B1B6898470F4B1E
:1008E8001B6803F02003002BF2D10D4B1B78DBB201
:1008F800002B0CD0094B1B6803F08003002B06D09B
:10090800084B1B68002B02D0064B1B68984700BF9A
:1009180080BD00BFC5000020E0000020004400406A
:10092800C6000020E400002080B584B000AF3B6022
:100938000346FB710B46BB7113467B710023FB73A7
:10094800BB79002B05D0BB79002B02D0BB79F72BE4
:1009580002D90223FB733BE0204ABB791370FB7971
:10096800002B21D11E4B1F4A1A601F4B1F4A1A60C9
:100978001F4B204A1A60204B204A1A60204B002245
:100988001A60204B204A1A60204B214A1A60214BDA
:10099800214A1A60114B18783B7E79793A6800F041
:1009A800F5FD0346FB7302E00223FB7300BFFB7BEC
:1009B800002B0DD1FFF752FE0346002B02D1032373
:1009C800FB7305E0154AFB791370154B01221A7069
:1009D800FB7B18461037BD4680BD00BFC70000200E
:1009E800D00000200D160008D4000020351600089D
:1009F800CC000020C1160008D800002051160008BD
:100A0800DC000020E000002089170008E400002036
:100A180035180008E8000020BD180008C8000020AC
:100A28000400002080B582B000AF0023FB71094BA1
:100A38001B78012B06D1084B1B689847054B0022F1
:100A48001A7001E00623FB71FB7918460837BD468A
:100A580080BD00BF04000020D000002090B583B006
:100A680000AF0023FB70554B1B78002B01D00623E9
:100A78009FE0BB1C1846FFF72FFE0346012B40F0F2
:100A88009780BB78013B072B00F2928001A252F8B5
:100A980023F000BFB90B0008BD0A0008B90B000815
:100AA800EF0A0008B90B0008B90B0008B90B0008D9
:100AB800B90B0008424B1B68424A434943489847D0
:100AC8000346FB70FB78002B6FD1404B1A78404BE4
:100AD8001B789A4203D03D4B1B78002B65D104202C
:100AE800FFF7CEFD61E0384B1B681A78394B1A7056
:100AF800394B01221A7000237B601FE0374A7B685C
:100B080012F83330002B1DD0344A7B6812F833209A
:100B1800304B1B789A420ED1304A7B68DB00134475
:100B28005B68294A126827491046984703461A46BF
:100B3800294B1A7007E07B6801337B607B680F2BB9
:100B4800DCDD00E000BF214B1B78002B2FD0224BAF
:100B58001B78002B1DD01B4B00221A801D4B1A78C6
:100B6800194B1968174B1B88581C84B21548048008
:100B78000B4462F07F02D2B21A70134B1A68114B01
:100B88001B88591C88B20F4908801344124A1278EE
:100B98001A70134B1B680E4A10780B4A1168094AE1
:100BA800128898470346FB7001E000BF00E000BFD1
:100BB800002318460C37BD4690BD00BF0400002036
:100BC800D8000020F4000020F0000020EC000020F5
:100BD800C7000020F6000020F700002008000020D1
:100BE800CC00002080B487B000AF7860084611467A
:100BF8001A4603467B800B467B7013463B703B7856
:100C0800FB827B88DB08BB82BB8ADB009BB27A88CD
:100C1800D31A7B82FA8A7B8A02FA03F3FB827B78F7
:100C2800012202FA03F39BB2013B3B823A8A79889C
:100C3800BB8ADB00CB1A02FA03F33B82BB8A7A68D1
:100C480013441B78FB81BB8A01337A6813441B78F1
:100C58001BB21B021AB2B7F90E3013431BB2FB8149
:100C6800B7F91030DB431AB2B7F90E3013401AB295
:100C7800B7F9163013431BB2FB81BB8A7A68134459
:100C8800FA89D2B21A70FB891B0A99B2BB8A01335E
:100C98007A681344CAB21A7000BF1C37BD465DF8A3
:100CA800047B704780B485B000AF78600B467B80CA
:100CB80013467B707B88DB08FB81FB89DB009BB2DA
:100CC8007A88D31ABB817B78012202FA03F39BB29C
:100CD800013B7B81FB897A6813441B783B81FB8944
:100CE80001337A6813441B781BB21B021AB2B7F996
:100CF800083013431BB23B813A89BB8942FA03F39C
:100D08003B813A897B8913403B813B89DBB218469A
:100D18001437BD465DF8047B704780B485B000AFDA
:100D28000346FB71FB79072B0CD0072B0DDC002B3E
:100D380002D0012B03D008E00023FB7308E0022354
:100D4800FB7305E00623FB7302E00423FB7300BF7B
:100D5800FB7B18461437BD465DF8047B70470000DE
:100D680080B582B000AF786039607B680133084A8B
:100D7800128808491846FFF777FA054B1B88013394
:100D88009AB23B681A80002318460837BD4680BDD2
:100D980018010020F800002080B584B000AF78600A
:100DA80039600023FB733B681B88052B21D17B68C6
:100DB80001331B781B02BB817B6802331B781A4600
:100DC800BB891343BB81BB890133BB817B68D81CBA
:100DD800B9890123012200F0EDFD0346FB72FB7A7D
:100DE800002B08D0FB7A1846FFF797FF0346FB73E2
:100DF80001E00323FB73FB7B18461037BD4680BD1B
:100E080080B584B000AF786039600023FB733B681D
:100E18001B88052B44D97B6801331B781B02BB81D7
:100E28007B6802331B781A46BB891343BB81BB8995
:100E38000133BB817B6803331B781B027B817B6892
:100E480004331B781A467B8913437B817B685B7963
:100E58007B727B89002B20D07B89782B1DD87B89DE
:100E6800DBB25B00DBB27A7A9A4216D17B68981DB6
:100E78007A89B989012300F09DFD03463B723B7ACC
:100E8800002B06D03B7A1846FFF747FF0346FB7353
:100E980008E03B6805221A8004E00323FB7301E0A5
:100EA8000323FB73FB7B18461037BD4680BD80B516
:100EB80086B000AF786039600023FB753B681B88FB
:100EC800052B5DD17B6801331B781B02BB827B68D5
:100ED80002331B781A46BB8A1343BB82BB8A013391
:100EE800BB827B6803331B781B027B827B680433DD
:100EF8001B781A467B8A13437B827B8A002B3CD063
:100F08007B8A7D2B39D87B68FB603B6800221A807E
:100F1800FB685A1CFA6003221A703B681B8801336D
:100F28009AB23B681A807B8ADAB2FB68591CF9606E
:100F38005200D2B21A703B681B8801339AB23B68E0
:100F48001A807A8AB98A0023F86800F033FD0346CC
:100F5800FB72FB7A002B06D0FB7A1846FFF7DDFE02
:100F68000346FB750EE03B681A887B8A5B009BB2E0
:100F780013449AB23B681A8004E00323FB7501E02E
:100F88000323FB75FB7D18461837BD4680BD80B529
:100F980086B000AF786039600023FB753B681B881A
:100FA800092B40F295807B6801331B781B02BB82BA
:100FB8007B6802331B781A46BB8A1343BB82BB8A01
:100FC8000133BB827B6803331B781B027B827B68FF
:100FD80004331B781A467B8A13437B827B6805336C
:100FE8001B781B023B827B6806331B781A463B8AB8
:100FF80013433B823B8A01333B827B6807331B7870
:101008001B02FB817B6808331B781A46FB89134354
:10101800FB817B685B7A7B737B8A002B56D07B8A4B
:101028007D2B53D8FB89002B50D0FB89792B4DD8C9
:10103800FB895A007B7B9A4248D17B6803F10A00FE
:10104800FA89398A012300F0B5FC0346BB75BB7DDC
:10105800002B31D17B68BB603B6800221A80BB68DB
:101068005A1CBA6017221A703B681B8801339AB25F
:101078003B681A807B8ADAB2BB68591CB960520097
:10108800D2B21A703B681B8801339AB23B681A8047
:101098007A8AB98A0023B86800F08CFC0346BB75CD
:1010A800BB7D002B08D13B681A887B8A5B009BB20A
:1010B80013449AB23B681A80BB7D002B08D0BB7DD5
:1010C8001846FFF72AFE0346FB7501E00323FB756C
:1010D800FB7D18461837BD4680BD80B586B000AF89
:1010E800786039600023FB753B681B88052B5DD150
:1010F8007B6801331B781B02BB827B6802331B7839
:101108001A46BB8A1343BB82BB8A0133BB827B6806
:1011180003331B781B027B827B6804331B781A46D7
:101128007B8A13437B827B8A002B3CD07B8A7C2B77
:1011380039D87B68FB603B6800221A80FB685A1C20
:10114800FA6004221A703B681B8801339AB23B6824
:101158001A807B8ADAB2FB68591CF9605200D2B255
:101168001A703B681B8801339AB23B681A807A8AE6
:10117800BB8A1946F86800F0C9FB0346FB72FB7A84
:10118800002B06D0FB7A1846FFF7C7FD0346FB7510
:101198000EE03B681A887B8A5B009BB213449AB2C4
:1011A8003B681A8004E00323FB7501E00323FB7509
:1011B800FB7D18461837BD4680BD80B586B000AFA8
:1011C800786039600023BB753B681B88052B6AD1A2
:1011D8007B6801331B781B02BB827B6802331B7858
:1011E8001A46BB8A1343BB82BB8A0133BB827B6826
:1011F80003331B781B027B827B6804331B781A46F7
:101208007B8A13437B827B8A002B49D07B8AB3F588
:10121800FA6F45D27B68FB603B6800221A80FB6846
:101228005A1CFA6001221A703B681B8801339AB273
:101238003B681A807B8A03F00703002B06D07B8A61
:10124800DB089BB2DBB20133FB7503E07B8ADB086A
:101258009BB2FB75FB685A1CFA60FA7D1A703B68F2
:101268001B8801339AB23B681A807A8AB98A0023AC
:10127800F86800F025FC0346FB72FB7A002B06D0C9
:10128800FB7A1846FFF749FD0346BB750DE03B683E
:101298001A88FB7D9BB213449AB23B681A8004E01B
:1012A8000323BB7501E00323BB75BB7D18461837C4
:1012B800BD4680BD80B584B000AF7860396000233A
:1012C800FB733B681B88052B3FD17B6801331B7878
:1012D8001B02BB817B6802331B781A46BB89134308
:1012E800BB81BB890133BB817B6804331B78002B2E
:1012F80028D17B6803331B78FF2B04D07B6803332A
:101308001B78002B1ED100237B727B6803331B786C
:10131800FF2B02D101233B7201E000233B72B98904
:1013280007F108000123012200F0CAFB0346FB7203
:10133800FB7A002B0BD0FB7A1846FFF7EEFC03462E
:10134800FB7304E00323FB7301E00323FB73FB7BC4
:1013580018461037BD4680BD80B584B000AF7860B0
:1013680039600023BB733B681B88052B52D97B6807
:1013780001331B781B02BB817B6802331B781A463A
:10138800BB891343BB81BB890133BB817B680333B2
:101398001B781B027B817B6804331B781A467B8988
:1013A80013437B817B685B797B727B8903F007033E
:1013B800002B06D07B89DB089BB2DBB20133FB73C1
:1013C80003E07B89DB089BB2FB737B89002B1ED073
:1013D8007B89B3F5F66F1AD8FA7B7B7A9A4216D1D5
:1013E8007B68981D7A89B989012300F069FB034657
:1013F8003B723B7A002B06D03B7A1846FFF78DFCF0
:101408000346BB7308E03B6805221A8004E0032307
:10141800BB7301E00323BB73BB7B18461037BD4683
:1014280080BD80B586B000AF786039600023BB7599
:101438003B681B88052B6AD17B6801331B781B022C
:10144800BB827B6802331B781A46BB8A1343BB8274
:10145800BB8A0133BB827B6803331B781B027B8208
:101468007B6804331B781A467B8A13437B827B8A0A
:10147800002B49D07B8AB3F5FA6F45D27B68FB60B5
:101488003B6800221A80FB685A1CFA6002221A7014
:101498003B681B8801339AB23B681A807B8A03F049
:1014A8000703002B06D07B8ADB089BB2DBB2013333
:1014B800FB7503E07B8ADB089BB2FB75FB685A1C53
:1014C800FA60FA7D1A703B681B8801339AB23B6850
:1014D8001A807A8ABB8A1946F86800F09FFB03468F
:1014E800FB72FB7A002B06D0FB7A1846FFF715FC37
:1014F8000346BB750DE03B681A88FB7D9BB213441D
:101508009AB23B681A8004E00323BB7501E0032309
:10151800BB75BB7D18461837BD4680BD80B485B005
:1015280000AF78600B467B80FF23FB73FF23BB7300
:1015380013E07B685A1C7A601A78BB7B5340DBB295
:10154800BB60104ABB6813441A78FB7B5340BB73DB
:101558000D4ABB6813441B78FB737B885A1E7A803C
:10156800002BE6D1FB7B1BB21B021AB2BB7B1BB262
:1015780013431BB29BB218461437BD465DF8047B73
:10158800704700BFD41D0008D41E000880B584B081
:1015980000AF3A601A460346FB710B46BB7113460F
:1015A8007B710023FB7372B600BF3B68B3F5964F9F
:1015B80002D92323BB6005E03B685B00104AB2FBFD
:1015C800F3F3BB60BB689BB21846FFF725F90346E7
:1015D800012B02D00323FB730AE07B79B879082238
:1015E8003968FFF7A7F80346012B01D00323FB73E3
:1015F80062B600BFFB7B18461037BD4680BD00BFF2
:10160800A07F170080B500AF72B600BF064B00225E
:101618001A7000210120FFF7B1F8FFF731F962B61F
:1016280000BF00BF80BD00BF1B01002080B500AF18
:1016380072B600BF00210020FFF7A0F8FFF734F9C9
:1016480062B600BF00BF80BD80B586B000AFF8604D
:10165800B9607A600023FB7572B600BF134B1B8814
:101668009BB2032B19D9114B1B889BB21946104802
:10167800FFF754FF0346002B0FD10D4B1B78DAB24E
:10168800FB681A70094B1B889BB2033B9AB27B68B4
:101698001A80BB68074A1A6001E00523FB7562B629
:1016A80000BFFB7D18461837BD4680BD22020020CA
:1016B8001C0100201D01002080B584B000AF034646
:1016C8003960FB711346BB800023FB7372B600BF01
:1016D800264B1B78DBB2012B3FD13B68013B244AE8
:1016E8001360244B01221A80214B1B68FA791A7067
:1016F800204B1B889AB2BB8813449AB21D4B1A80A0
:101708001B4B1B681B4A128892B211461846FFF7FA
:1017180005FF0346BB81174B1B889BB25A1C91B22D
:10172800144A11801A46BB89D9B2134B9954BB8904
:101738001B0A99B20F4B1B889BB25A1C90B20D4AD8
:1017480010801A46C9B20C4B99540C4B01221A70DE
:1017580001210020FFF712F801E00523FB7362B6B0
:1017680000BFFB7B18461037BD4680BD1B0100201B
:101778001C020020200200201C0100201A01002069
:1017880080B582B000AF0023FB71BB1D1846FFF780
:1017980013F8234B1B78DBB2032B3CD801A252F879
:1017A80023F000BFBD170008C9170008F11700088B
:1017B800C3170008FFF764F82DE0FFF761F82AE087
:1017C800184B00221A80174B1B889BB25A1C91B2E7
:1017D800144A11801A46B979134B9954104B0222B6
:1017E8001A70FFF74DF816E00E4B1B889BB2FF2BC3
:1017F8000BD80C4B1B889BB25A1C91B2094A11801A
:101808001A46B979084B995402E0054B03221A701D
:10181800FFF736F800BFFB7918460837BD4680BD8C
:101828001B010020220200201C01002080B582B08C
:1018380000AF0023FB711C4B1B78DBB2002B02D0DE
:10184800012B05D02BE000210120FEF797FF26E0B1
:10185800164B1B889BB2002B14D0154B1B681B78AA
:10186800DBB25BB21846FEF7BFFF114B1B680133B2
:101878000F4A13600D4B1B889BB2013B9AB20B4B6E
:101888001A800BE00820FEF7FBFE0346FB71064BAF
:1018980000221A7000210120FEF770FF00BFFB79BB
:1018A80018460837BD4680BD1A01002020020020D6
:1018B8001C02002080B582B000AF0023FB71124BE0
:1018C8001B78DBB2032B12D0032B12DC002B02D0C7
:1018D800022B06D00DE00120FEF7D2FE0346FB7175
:1018E80008E00220FEF7CCFE0346FB7102E000BFD1
:1018F80000E000BFFEF7D8FF034B01221A70FB7906
:1019080018460837BD4680BD1B01002080B487B04B
:1019180000AF78600B467B8013463B800023FB7545
:10192800224B3B610123FB811023BB81204B1B8889
:101938007B817B88013B7B807A88FB899A422CD308
:101948007A883B881A44F989BB890B449A4224DC7B
:101958007A887B89D31ABB821BE0BB8A5B003A6911
:1019680013441B881B0A99B27B685A1C7A60CAB256
:101978001A70BB8A5B003A69134419887B685A1C41
:101988007A60CAB21A70BB8A0133BB823B88013BBA
:101998003B803B88002BE0D101E00123FB75FB7DF8
:1019A80018461C37BD465DF8047B70472C020020A2
:1019B8008C00002080B489B000AFF860084611465A
:1019C8001A4603467B810B463B811346FB71002375
:1019D800FB77394BBB610123FB821023BB82374B5A
:1019E8001B887B827B89013B7B817A89FB8A9A42AF
:1019F80059D37A893B891A44F98ABB8A0B449A429B
:101A080051DC7A897B8AD31ABB83FB79002B1ED0E1
:101A1800012B43D049E0BB8B5B00BA6913441B8898
:101A28001B0A99B2FB685A1CFA60CAB21A70BB8BBF
:101A38005B00BA6913441988FB685A1CFA60CAB279
:101A48001A70BB8B0133BB833B89013B3B813B89CC
:101A5800002BE0D126E0FB685A1CFA601B78194677
:101A6800BB8B5B00BA6913440A0292B21A80FB6806
:101A78005A1CFA601978BB8B5B00BA6913441A8840
:101A88000846BB8B5B00B9690B44024392B21A80CB
:101A9800BB8B0133BB833B89013B3B813B89002BDB
:101AA800D9D100BF01E00123FB77FB7F184624371B
:101AB800BD465DF8047B70474C0200208E00002074
:101AC80090B58BB000AFF860084611461A46034639
:101AD8007B810B463B811346FB71002387F8273037
:101AE8003B89DB089BB201337B844A4BFB610123B2
:101AF8007B8310233B83484B1B88FB827B89013BFC
:101B08007B817A897B8B9A427BD37A893B891A4479
:101B1800798B3B8B0B449A4273DC7A89FB8AD31A04
:101B28009BB2DB08BB847A89FB8AD31A9BB203F089
:101B38000703BB82FB79002B15D0012B45D063E04E
:101B4800BB8C5A1CBA841A46FB699818FC68631C3B
:101B5800FB60BB8A08221946FFF7A4F803462370E6
:101B68007B8C013B7B847B8C002BE9D1FB68013BA0
:101B7800FB603B8903F007033B81FB681B781A462F
:101B88003B89C3F1080302FA03F3DAB2FB681A705F
:101B9800FB681B781A463B89C3F1080342FA03F332
:101BA800DAB2FB681A702BE0BB8C5A1CBA841A464E
:101BB800FB699818FB685A1CFA601B78B98A0822D6
:101BC800FFF710F87B8C013B7B847B8C012BEBD8D7
:101BD8003B8903F007033B813B89002B0FD0BB8C6B
:101BE8005A1CBA841A46FB6998183B89DCB2FB6810
:101BF8005A1CFA601B78B98A2246FEF7F3FF00BF29
:101C080002E0012387F8273097F8273018462C3749
:101C1800BD4690BD280200208A00002090B589B0FA
:101C280000AF78600B467B8013463B800023FB7730
:101C38003B88DB089BB201337B83304B7B610123FC
:101C48007B8210233B822E4B1B88FB817B88013BC8
:101C58007B807A887B8A9A4249D37A883B881A445F
:101C6800798A3B8A0B449A4241DC7A88FB89D31AE9
:101C78009BB2DB08BB837A88FB89D31A9BB203F03B
:101C88000703BB8112E0BB8B5A1CBA831A467B69D7
:101C980098187C68631C7B60BB8908221946FFF78B
:101CA80001F8034623707B8B013B7B837B8B002BE6
:101CB800E9D17B68013B7B603B8803F007033B80ED
:101CC8007B681B781A463B88C3F1080302FA03F3C2
:101CD800DAB27B681A707B681B781A463B88C3F1B6
:101CE800080342FA03F3DAB27B681A7001E00123B1
:101CF800FB77FB7F18462437BD4690BD24020020A1
:101D080088000020DFF834D0FEF778FB0C480D4936
:101D18000D4A002302E0D458C4500433C4188C423E
:101D2800F9D30A4A0A4C002301E013600432A242A4
:101D3800FBD3FEF771FAFEF731FB70470000022073
:101D48000000002090000020E41F00089000002000
:101D58006C020020FEE70000F8B500BFF8BC08BC24
:101D68009E467047F8B500BFF8BC08BC9E46704751
:101D780053544D333246343131204D6F646275739C
:101D88002052545520536C617665207374617274C7
:101D9800696E672E2E2E0D0A000000004D6F6462DA
:101DA800757320696E6974206661696C65640D0AD3
:101DB800000000004D6F6462757320656E61626C8F
:101DC80065206661696C65640D0A000000C1814088
:101DD80001C0804101C0804100C1814001C08041F3
:101DE80000C1814000C1814001C0804101C08041E3
:101DF80000C1814000C1814001C0804100C18140D3
:101E080001C0804101C0804100C1814001C08041C2
:101E180000C1814000C1814001C0804100C18140B2
:101E280001C0804101C0804100C1814000C18140A2
:101E380001C0804101C0804100C1814001C0804192
:101E480000C1814000C1814001C0804101C0804182
:101E580000C1814000C1814001C0804100C1814072
:101E680001C0804101C0804100C1814000C1814062
:101E780001C0804101C0804100C1814001C0804152
:101E880000C1814000C1814001C0804100C1814042
:101E980001C0804101C0804100C1814001C0804132
:101EA80000C1814000C1814001C0804101C0804122
:101EB80000C1814000C1814001C0804100C1814012
:101EC80001C0804101C0804100C1814000C0C10102
:101ED800C30302C2C60607C705C5C404CC0C0DCD92
:101EE8000FCFCE0E0ACACB0BC90908C8D81819D902
:101EF8001BDBDA1A1EDEDF1FDD1D1CDC14D4D51532
:101F0800D71716D6D21213D311D1D010F03031F121
:101F180033F3F23236F6F737F53534F43CFCFD3D51
:101F2800FF3F3EFEFA3A3BFB39F9F83828E8E92941
:101F3800EB2B2AEAEE2E2FEF2DEDEC2CE42425E5F1
:101F480027E7E62622E2E323E12120E0A06061A161
:101F580063A3A26266A6A767A56564A46CACAD6D11
:101F6800AF6F6EAEAA6A6BAB69A9A86878B8B97981
:101F7800BB7B7ABABE7E7FBF7DBDBC7CB47475B5B1
:101F880077B7B67672B2B373B17170B050909151A1
:101F98009353529296565797559594549C5C5D9DD1
:101FA8005F9F9E5E5A9A9B5B9959589888484989C1
:101FB8004B8B8A4A4E8E8F4F8D4D4C8C4484854571
:0C1FC80087474686824243834181804067
:081FD4009CE2FF7F0100000008
:041FDC0001020008F6
:041FE000D90100081B
:101FE4000024F4000200000011000000690D000844
:101FF40004000000E310000803000000B70E00080E
:1020040010000000090E000806000000A10D0008E1
:1020140017000000970F000801000000C31100081A
:1020240005000000BD1200080F0000006113000845
:10203400020000002B140008000000000000000053
:10204400000000000000000000000000000000008C
:10205400000000000000000000000000000000007C
:102064000000000000000000010001000100010068
:0400000508001D0DC5
:00000001FF
